{
  "_format": "hh-sol-artifact-1",
  "contractName": "BigNumberGame",
  "sourceName": "contracts/BigNumberGame.sol",
  "abi": [
    {
      "inputs": [],
      "stateMutability": "nonpayable",
      "type": "constructor"
    },
    {
      "inputs": [
        {
          "internalType": "uint8",
          "name": "got",
          "type": "uint8"
        },
        {
          "internalType": "uint8",
          "name": "expected",
          "type": "uint8"
        }
      ],
      "name": "InvalidEncryptedInput",
      "type": "error"
    },
    {
      "inputs": [
        {
          "internalType": "int32",
          "name": "value",
          "type": "int32"
        }
      ],
      "name": "SecurityZoneOutOfBounds",
      "type": "error"
    },
    {
      "inputs": [],
      "name": "difference",
      "outputs": [
        {
          "internalType": "euint32",
          "name": "",
          "type": "uint256"
        }
      ],
      "stateMutability": "view",
      "type": "function"
    },
    {
      "inputs": [],
      "name": "getEncryptedResult",
      "outputs": [
        {
          "internalType": "euint32",
          "name": "",
          "type": "uint256"
        },
        {
          "internalType": "euint32",
          "name": "",
          "type": "uint256"
        }
      ],
      "stateMutability": "view",
      "type": "function"
    },
    {
      "inputs": [],
      "name": "number1",
      "outputs": [
        {
          "internalType": "euint32",
          "name": "",
          "type": "uint256"
        }
      ],
      "stateMutability": "view",
      "type": "function"
    },
    {
      "inputs": [],
      "name": "number2",
      "outputs": [
        {
          "internalType": "euint32",
          "name": "",
          "type": "uint256"
        }
      ],
      "stateMutability": "view",
      "type": "function"
    },
    {
      "inputs": [],
      "name": "owner",
      "outputs": [
        {
          "internalType": "address",
          "name": "",
          "type": "address"
        }
      ],
      "stateMutability": "view",
      "type": "function"
    },
    {
      "inputs": [],
      "name": "player1",
      "outputs": [
        {
          "internalType": "address",
          "name": "",
          "type": "address"
        }
      ],
      "stateMutability": "view",
      "type": "function"
    },
    {
      "inputs": [],
      "name": "player2",
      "outputs": [
        {
          "internalType": "address",
          "name": "",
          "type": "address"
        }
      ],
      "stateMutability": "view",
      "type": "function"
    },
    {
      "inputs": [],
      "name": "resetGame",
      "outputs": [],
      "stateMutability": "nonpayable",
      "type": "function"
    },
    {
      "inputs": [
        {
          "components": [
            {
              "internalType": "uint256",
              "name": "ctHash",
              "type": "uint256"
            },
            {
              "internalType": "uint8",
              "name": "securityZone",
              "type": "uint8"
            },
            {
              "internalType": "uint8",
              "name": "utype",
              "type": "uint8"
            },
            {
              "internalType": "bytes",
              "name": "signature",
              "type": "bytes"
            }
          ],
          "internalType": "struct InEuint32",
          "name": "encryptedInput",
          "type": "tuple"
        }
      ],
      "name": "submitNumber",
      "outputs": [],
      "stateMutability": "nonpayable",
      "type": "function"
    },
    {
      "inputs": [],
      "name": "winnerEncrypted",
      "outputs": [
        {
          "internalType": "euint32",
          "name": "",
          "type": "uint256"
        }
      ],
      "stateMutability": "view",
      "type": "function"
    }
  ],
  "bytecode": "0x6080604052348015600f57600080fd5b50336000806101000a81548173ffffffffffffffffffffffffffffffffffffffff021916908373ffffffffffffffffffffffffffffffffffffffff160217905550611b528061005f6000396000f3fe608060405234801561001057600080fd5b506004361061009e5760003560e01c8063c223a39e11610066578063c223a39e14610123578063cead226214610141578063d30895e41461015f578063dd56653c1461017d578063f8b4f1191461019b5761009e565b806317730aba146100a357806359a5f12d146100bf5780638da5cb5b146100dd57806390c52443146100fb578063bb47221914610119575b600080fd5b6100bd60048036038101906100b89190611210565b6101ba565b005b6100c76104be565b6040516100d4919061129a565b60405180910390f35b6100e56104e4565b6040516100f2919061129a565b60405180910390f35b610103610508565b60405161011091906112fa565b60405180910390f35b61012161050e565b005b61012b610662565b60405161013891906112fa565b60405180910390f35b610149610668565b60405161015691906112fa565b60405180910390f35b61016761066e565b604051610174919061129a565b60405180910390f35b610185610694565b60405161019291906112fa565b60405180910390f35b6101a361069a565b6040516101b1929190611315565b60405180910390f35b600073ffffffffffffffffffffffffffffffffffffffff16600160009054906101000a900473ffffffffffffffffffffffffffffffffffffffff1673ffffffffffffffffffffffffffffffffffffffff1614806102655750600073ffffffffffffffffffffffffffffffffffffffff16600260009054906101000a900473ffffffffffffffffffffffffffffffffffffffff1673ffffffffffffffffffffffffffffffffffffffff16145b6102a4576040517f08c379a000000000000000000000000000000000000000000000000000000000815260040161029b9061139b565b60405180910390fd5b600160009054906101000a900473ffffffffffffffffffffffffffffffffffffffff1673ffffffffffffffffffffffffffffffffffffffff163373ffffffffffffffffffffffffffffffffffffffff16141580156103505750600260009054906101000a900473ffffffffffffffffffffffffffffffffffffffff1673ffffffffffffffffffffffffffffffffffffffff163373ffffffffffffffffffffffffffffffffffffffff1614155b61038f576040517f08c379a000000000000000000000000000000000000000000000000000000000815260040161038690611407565b60405180910390fd5b600073ffffffffffffffffffffffffffffffffffffffff16600160009054906101000a900473ffffffffffffffffffffffffffffffffffffffff1673ffffffffffffffffffffffffffffffffffffffff160361044e5733600160006101000a81548173ffffffffffffffffffffffffffffffffffffffff021916908373ffffffffffffffffffffffffffffffffffffffff1602179055506104388161043390611670565b610793565b600381905550610449600354610807565b6104bb565b33600260006101000a81548173ffffffffffffffffffffffffffffffffffffffff021916908373ffffffffffffffffffffffffffffffffffffffff1602179055506104a18161049c90611670565b610793565b6004819055506104b2600454610807565b6104ba61088b565b5b50565b600260009054906101000a900473ffffffffffffffffffffffffffffffffffffffff1681565b60008054906101000a900473ffffffffffffffffffffffffffffffffffffffff1681565b60045481565b60008054906101000a900473ffffffffffffffffffffffffffffffffffffffff1673ffffffffffffffffffffffffffffffffffffffff163373ffffffffffffffffffffffffffffffffffffffff161461059c576040517f08c379a0000000000000000000000000000000000000000000000000000000008152600401610593906116cf565b60405180910390fd5b6000600160006101000a81548173ffffffffffffffffffffffffffffffffffffffff021916908373ffffffffffffffffffffffffffffffffffffffff1602179055506000600260006101000a81548173ffffffffffffffffffffffffffffffffffffffff021916908373ffffffffffffffffffffffffffffffffffffffff16021790555061062a6000610929565b60038190555061063a6000610929565b60048190555061064a6000610929565b60058190555061065a6000610929565b600681905550565b60035481565b60065481565b600160009054906101000a900473ffffffffffffffffffffffffffffffffffffffff1681565b60055481565b600080600160009054906101000a900473ffffffffffffffffffffffffffffffffffffffff1673ffffffffffffffffffffffffffffffffffffffff163373ffffffffffffffffffffffffffffffffffffffff1614806107465750600260009054906101000a900473ffffffffffffffffffffffffffffffffffffffff1673ffffffffffffffffffffffffffffffffffffffff163373ffffffffffffffffffffffffffffffffffffffff16145b610785576040517f08c379a000000000000000000000000000000000000000000000000000000000815260040161077c9061173b565b60405180910390fd5b600654600554915091509091565b600080600490508060ff16836040015160ff16146107ee578260400151816040517f67cf30710000000000000000000000000000000000000000000000000000000081526004016107e592919061176a565b60405180910390fd5b6107ff6107fa8461093d565b610980565b915050919050565b73ea30c4b8b44078bbf8a6ef5b9f1ec1626c7848d973ffffffffffffffffffffffffffffffffffffffff166365d0509c82306040518363ffffffff1660e01b81526004016108569291906117a2565b600060405180830381600087803b15801561087057600080fd5b505af1158015610884573d6000803e3d6000fd5b5050505050565b600061089b600354600454610a1b565b905060006108ad600354600454610a67565b90506108d36108c0600354600454610ab3565b6108ce600354600454610aff565b610b4b565b600581905550610909826108e76001610929565b610904846108f56002610929565b6108ff6000610929565b610b97565b610b97565b60068190555061091a600554610bfd565b610925600654610bfd565b5050565b6000610936826000610c81565b9050919050565b6109456111aa565b604051806080016040528083600001518152602001836020015160ff168152602001600460ff16815260200183606001518152509050919050565b600073ea30c4b8b44078bbf8a6ef5b9f1ec1626c7848d973ffffffffffffffffffffffffffffffffffffffff166327f9c76283336040518363ffffffff1660e01b81526004016109d19291906118cb565b6020604051808303816000875af11580156109f0573d6000803e3d6000fd5b505050506040513d601f19601f82011682018060405250810190610a149190611910565b9050919050565b6000610a2683610c9c565b610a3757610a346000610929565b92505b610a4082610c9c565b610a5157610a4e6000610929565b91505b610a5f600484846015610cae565b905092915050565b6000610a7283610c9c565b610a8357610a806000610929565b92505b610a8c82610c9c565b610a9d57610a9a6000610929565b91505b610aab600484846014610cae565b905092915050565b6000610abe83610c9c565b610acf57610acc6000610929565b92505b610ad882610c9c565b610ae957610ae66000610929565b91505b610af7600484846017610cae565b905092915050565b6000610b0a83610c9c565b610b1b57610b186000610929565b92505b610b2482610c9c565b610b3557610b326000610929565b91505b610b43600484846016610cae565b905092915050565b6000610b5683610c9c565b610b6757610b646000610929565b92505b610b7082610c9c565b610b8157610b7e6000610929565b91505b610b8f600484846007610cae565b905092915050565b6000610ba284610da2565b610bb357610bb06000610db4565b93505b610bbc83610c9c565b610bcd57610bca6000610929565b92505b610bd682610c9c565b610be757610be46000610929565b91505b610bf46004858585610dc8565b90509392505050565b73ea30c4b8b44078bbf8a6ef5b9f1ec1626c7848d973ffffffffffffffffffffffffffffffffffffffff166365d0509c82336040518363ffffffff1660e01b8152600401610c4c9291906117a2565b600060405180830381600087803b158015610c6657600080fd5b505af1158015610c7a573d6000803e3d6000fd5b5050505050565b600080610c9084600485610ebe565b90508091505092915050565b6000610ca782610fbe565b9050919050565b600073ea30c4b8b44078bbf8a6ef5b9f1ec1626c7848d973ffffffffffffffffffffffffffffffffffffffff16631888debd8684610cec8888610fcb565b600067ffffffffffffffff811115610d0757610d0661143d565b5b604051908082528060200260200182016040528015610d355781602001602082028036833780820191505090505b506040518563ffffffff1660e01b8152600401610d559493929190611a63565b6020604051808303816000875af1158015610d74573d6000803e3d6000fd5b505050506040513d601f19601f82011682018060405250810190610d989190611910565b9050949350505050565b6000610dad82610fbe565b9050919050565b6000610dc1826000611067565b9050919050565b600073ea30c4b8b44078bbf8a6ef5b9f1ec1626c7848d973ffffffffffffffffffffffffffffffffffffffff16631888debd866004610e08888888611094565b600067ffffffffffffffff811115610e2357610e2261143d565b5b604051908082528060200260200182016040528015610e515781602001602082028036833780820191505090505b506040518563ffffffff1660e01b8152600401610e719493929190611a63565b6020604051808303816000875af1158015610e90573d6000803e3d6000fd5b505050506040513d601f19601f82011682018060405250810190610eb49190611910565b9050949350505050565b600073ea30c4b8b44078bbf8a6ef5b9f1ec1626c7848d973ffffffffffffffffffffffffffffffffffffffff16631888debd84601a600067ffffffffffffffff811115610f0e57610f0d61143d565b5b604051908082528060200260200182016040528015610f3c5781602001602082028036833780820191505090505b50610f53898960ff16610f4e8a611152565b611094565b6040518563ffffffff1660e01b8152600401610f729493929190611a63565b6020604051808303816000875af1158015610f91573d6000803e3d6000fd5b505050506040513d601f19601f82011682018060405250810190610fb59190611910565b90509392505050565b6000808214159050919050565b60606000600267ffffffffffffffff811115610fea57610fe961143d565b5b6040519080825280602002602001820160405280156110185781602001602082028036833780820191505090505b50905083816000815181106110305761102f611ab6565b5b602002602001018181525050828160018151811061105157611050611ab6565b5b6020026020010181815250508091505092915050565b60008060009050831561107957600190505b600061108782600086610ebe565b9050809250505092915050565b60606000600367ffffffffffffffff8111156110b3576110b261143d565b5b6040519080825280602002602001820160405280156110e15781602001602082028036833780820191505090505b50905084816000815181106110f9576110f8611ab6565b5b602002602001018181525050838160018151811061111a57611119611ab6565b5b602002602001018181525050828160028151811061113b5761113a611ab6565b5b602002602001018181525050809150509392505050565b6000808260030b121561119c57816040517f8f568bf80000000000000000000000000000000000000000000000000000000081526004016111939190611b01565b60405180910390fd5b8163ffffffff169050919050565b604051806080016040528060008152602001600060ff168152602001600060ff168152602001606081525090565b6000604051905090565b600080fd5b600080fd5b600080fd5b600060808284031215611207576112066111ec565b5b81905092915050565b600060208284031215611226576112256111e2565b5b600082013567ffffffffffffffff811115611244576112436111e7565b5b611250848285016111f1565b91505092915050565b600073ffffffffffffffffffffffffffffffffffffffff82169050919050565b600061128482611259565b9050919050565b61129481611279565b82525050565b60006020820190506112af600083018461128b565b92915050565b6000819050919050565b6000819050919050565b60006112e46112df6112da846112b5565b6112bf565b6112b5565b9050919050565b6112f4816112c9565b82525050565b600060208201905061130f60008301846112eb565b92915050565b600060408201905061132a60008301856112eb565b61133760208301846112eb565b9392505050565b600082825260208201905092915050565b7f47616d652066756c6c0000000000000000000000000000000000000000000000600082015250565b600061138560098361133e565b91506113908261134f565b602082019050919050565b600060208201905081810360008301526113b481611378565b9050919050565b7f416c7265616479207375626d6974746564000000000000000000000000000000600082015250565b60006113f160118361133e565b91506113fc826113bb565b602082019050919050565b60006020820190508181036000830152611420816113e4565b9050919050565b600080fd5b6000601f19601f8301169050919050565b7f4e487b7100000000000000000000000000000000000000000000000000000000600052604160045260246000fd5b6114758261142c565b810181811067ffffffffffffffff821117156114945761149361143d565b5b80604052505050565b60006114a76111d8565b90506114b3828261146c565b919050565b600080fd5b6114c6816112b5565b81146114d157600080fd5b50565b6000813590506114e3816114bd565b92915050565b600060ff82169050919050565b6114ff816114e9565b811461150a57600080fd5b50565b60008135905061151c816114f6565b92915050565b600080fd5b600080fd5b600067ffffffffffffffff8211156115475761154661143d565b5b6115508261142c565b9050602081019050919050565b82818337600083830152505050565b600061157f61157a8461152c565b61149d565b90508281526020810184848401111561159b5761159a611527565b5b6115a684828561155d565b509392505050565b600082601f8301126115c3576115c2611522565b5b81356115d384826020860161156c565b91505092915050565b6000608082840312156115f2576115f1611427565b5b6115fc608061149d565b9050600061160c848285016114d4565b60008301525060206116208482850161150d565b60208301525060406116348482850161150d565b604083015250606082013567ffffffffffffffff811115611658576116576114b8565b5b611664848285016115ae565b60608301525092915050565b600061167c36836115dc565b9050919050565b7f4f6e6c79206f776e65722063616e207265736574000000000000000000000000600082015250565b60006116b960148361133e565b91506116c482611683565b602082019050919050565b600060208201905081810360008301526116e8816116ac565b9050919050565b7f4e6f74206120706c617965720000000000000000000000000000000000000000600082015250565b6000611725600c8361133e565b9150611730826116ef565b602082019050919050565b6000602082019050818103600083015261175481611718565b9050919050565b611764816114e9565b82525050565b600060408201905061177f600083018561175b565b61178c602083018461175b565b9392505050565b61179c816112b5565b82525050565b60006040820190506117b76000830185611793565b6117c4602083018461128b565b9392505050565b6117d4816112b5565b82525050565b6117e3816114e9565b82525050565b600081519050919050565b600082825260208201905092915050565b60005b83811015611823578082015181840152602081019050611808565b60008484015250505050565b600061183a826117e9565b61184481856117f4565b9350611854818560208601611805565b61185d8161142c565b840191505092915050565b600060808301600083015161188060008601826117cb565b50602083015161189360208601826117da565b5060408301516118a660408601826117da565b50606083015184820360608601526118be828261182f565b9150508091505092915050565b600060408201905081810360008301526118e58185611868565b90506118f4602083018461128b565b9392505050565b60008151905061190a816114bd565b92915050565b600060208284031215611926576119256111e2565b5b6000611934848285016118fb565b91505092915050565b7f4e487b7100000000000000000000000000000000000000000000000000000000600052602160045260246000fd5b6020811061197d5761197c61193d565b5b50565b600081905061198e8261196c565b919050565b600061199e82611980565b9050919050565b6119ae81611993565b82525050565b600081519050919050565b600082825260208201905092915050565b6000819050602082019050919050565b60006119ec83836117cb565b60208301905092915050565b6000602082019050919050565b6000611a10826119b4565b611a1a81856119bf565b9350611a25836119d0565b8060005b83811015611a56578151611a3d88826119e0565b9750611a48836119f8565b925050600181019050611a29565b5085935050505092915050565b6000608082019050611a78600083018761175b565b611a8560208301866119a5565b8181036040830152611a978185611a05565b90508181036060830152611aab8184611a05565b905095945050505050565b7f4e487b7100000000000000000000000000000000000000000000000000000000600052603260045260246000fd5b60008160030b9050919050565b611afb81611ae5565b82525050565b6000602082019050611b166000830184611af2565b9291505056fea2646970667358221220ec106134d5b43cce89a3f16ec519f4aded465b4a0d6fb8880aa226e02602abe464736f6c63430008190033",
  "linkReferences": {},
  "deployedLinkReferences": {}
}